:02000000803E40
:0200030001DD1D
:0200130001F0FA
:02002B0001C80A
:1000400075A8A575B82075C800753A02753B04758A
:100050003CFA753DFA753E007544027545017542DE
:1000600000754300754000754100756400756500BA
:10007000756200756300756000756100C200C201A1
:10008000C202C20375304075317975322475333040
:1000900075341975359075368075377875380075F3
:1000A00039187550FB7551F77552EF7553DF75545C
:1000B000BF75557F75565575CBF875CA3075CDF837
:1000C00075CC3075C80480FEC0D0C0E0B2CFB2CAD3
:1000D0008031D0E0D0D075A8A575C80432C0D0C09A
:1000E000E0C2A8C2AA3185D0E0D0D0D2A8D2AA322C
:1000F000C0D0C0E0C2A8C2AA3193D0E0D0D0D2A86C
:10010000D2AA32053E3164310D510480C5D53C0E72
:10011000753C01D53D08753CFA753DFA311F220545
:1001200040E540B40A3D7540000541E541B4063361
:100130007541000542E542B40A297542000543E5D0
:1001400043B4061F7543000544E544B4040DE5457A
:10015000B402087544007545008008B40A0575446A
:10016000000545221556E556B44F03755655A85659
:100170008690E556200204941080022410F9743011
:1001800027F886A022753E00E53EB414FB30B2028B
:10019000B20222753E00E53EB414FB30B365200286
:0B01A000320542E542B40A5B754200E4
:1001AB000543E543B406517543000544E544B404E7
:1001BB000DE545B40208754400754500803AB40A54
:1001CB0037754400054580300562E562B40A297530
:1001DB0062000563E563B4061F7563000564E5649F
:1001EB00B4040DE565B402087564007565008008FC
:1001FB00B40A0575640005452220031AE562B54271
:10020B002AE563B54325E564B54420E565B5451B93
:10021B00D203C2B78015E562B54202800EE560B528
:0C022B004009E561B54104D2B7C20322CE
:00000001FF
